:10000000832785009386F7FF2324D5006344F000FF
:100010006F30D22067800000832785009386F7FF2A
:100020002324D5006344F0006FE0947D67800000D6
:10003000130101FE232C8100130705001384050022
:1000400013050700930504002326C100232E110089
:10005000EF80D9200326C10013080500938805000E
:10006000630E0602135444011374F47F9307B00621
:10007000B38787406354F002939747013707F03FF7
:10008000130800003387E7001306080093060700F3
:10009000EF005A6B13080500938805008320C10107
:1000A0000324810113050800938508001301010250
:1000B0006780000003C701B663160700130710002E
:1000C0002380E1B603C781B563160700130710004C
:1000D000238CE1B403C701B56316070013071000B2
:1000E0002388E1B403C781B4631607001307100027
:1000F0002384E1B403C701B463160700130710009B
:100100002380E1B403C781B363160700130710000F
:10011000238CE1B203C701B3631607001307100075
:100120002388E1B203C781B26316070013071000EA
:100130002384E1B203C701B263160700130710005E
:100140002380E1B203C781B16316070013071000D3
:10015000238CE1B003C701B1631607001307100039
:100160002388E1B003C781B06316070013071000AE
:100170002384E1B06780000003C781BD63160700D8
:1001800013071000238CE1BC03C701BD63160700F1
:10019000130710002388E1BC03C781BC6316070066
:1001A000130710002384E1BC03C701BC63160700DA
:1001B000130710002380E1BC03C781BB631607004F
:1001C00013071000238CE1BA03C701BB63160700B5
:1001D000130710002388E1BA03C781BA631607002A
:1001E000130710002384E1BA03C701BA631607009E
:1001F000130710002380E1BA6780000003C781C3A2
:100200006316070013071000238CE1C203C701C364
:1002100063160700130710002388E1C203C781C2D9
:1002200063160700130710002384E1C203C701C24D
:1002300063160700130710002380E1C203C781C1C2
:100240006316070013071000238CE1C003C701C128
:1002500063160700130710002388E1C003C781C09D
:1002600063160700130710002384E1C003C701C011
:1002700063160700130710002380E1C067800000A9
:1002800003C781CE63160700130710002384E1CE55
:1002900003C701CE63160700130710002380E1CEC9
:1002A00003C781CD6316070013071000238CE1CC30
:1002B00003C701CD63160700130710002388E1CCA4
:1002C00003C781CC63160700130710002384E1CC19
:1002D00003C701CC63160700130710002380E1CC8D
:1002E00003C781CB6316070013071000238CE1CAF4
:1002F00003C701CB63160700130710002388E1CA68
:1003000003C781CA63160700130710002384E1CADC
:1003100003C701CA63160700130710002380E1CA50
:1003200003C781C96316070013071000238CE1C8B7
:1003300003C701C963160700130710002388E1C82B
:1003400067800000130101FF23229100B714000011
:100350002324810093840494376411002326110020
:10036000130404951385040023269400EFB048116C
:100370002324A400630205022322A4002320950065
:10038000232205008320C10003248100832441002F
:1003900013010101678000002326040023220400CA
:1003A0006FF05FFE130101FF2324810037E5080091
:1003B00013864185938541A31305C5B523261100F6
:1003C000EF80D86C13864185032481008320C1000F
:1003D00037E50800938501A3130585B513010101D5
:1003E0006F80D86A97A10D009381814917A50D00F0
:1003F000130585EF175610001306C6673306A6408F
:1004000093050000EFB0981D17950800130545638C
:10041000EF80585EEFA0983E032501009305410050
:1004200013060000EF00C04C6F8018686780000062
:1004300037A50E00B7A70E001307C50E9387C70E8A
:10044000638CE70037030000130303006306030017
:100450001305C50E6700030067800000B7A70E00F4
:1004600037A50E009385C70E9307C50EB385F540DB
:1004700093D5254093072000B3C5F502638C050092
:100480003703000013030300630603001305C50EC2
:10049000670003006780000003C781D96314070465
:1004A000130101FF23248100232611001384070078
:1004B000EFF01FF8B79709009387C7096388070013
:1004C00037E50B0013058539EF80183693071000C8
:1004D000238CF1D88320C100032481001301010182
:1004E0006780000067800000B7970900938787F353
:1004F0006382070237E50B00130101FF9385C1D921
:100500001305853923261100EF80D81B8320C100F5
:10051000130101016FF09FF4130101FE232E8100EE
:10052000130401022326A4FE93070000138507008D
:100530000324C1011301010267800000130101FDC2
:10054000232611022324810213040103232EA4FC79
:10055000232CB4FC232AC4FC2328D4FC0327C4FD89
:10056000930700313307F702B7278200938787FB91
:10057000B307F7002326F4FE032784FD8327C4FD79
:100580003307F740B7170000938707C4B307F70294
:10059000138607008325C4FE032544FDEFB0487091
:1005A0000327C4FDB7179A00938787CBB307F700DB
:1005B0002324F4FE032784FD8327C4FDB307F740FB
:1005C00013860700832584FE032504FDEFB0486DE4
:1005D00093070000138507008320C10203248102D2
:1005E0001301010367800000130101FE232E110097
:1005F000232C810013040102232004FE232604FE81
:100600000327C4FE9307500063C8E7040327C4FE12
:10061000930740063307F702B7078000B307F700D8
:100620002320F4FE0327C4FE930740063307F70296
:100630009387C1DBB307F70013064006832504FE4A
:1006400013850700EFB0C8658327C4FE93871700A2
:100650002326F4FE6FF0DFFAB70780009387872523
:100660002320F4FE13068001832504FE1385410137
:10067000EFB00863232404FE032784FE9307F002EF
:1006800063C4E706032784FE9307070093973700A8
:10069000B387E7009397270013870700B707800009
:1006A00093870727B307F7002320F4FE032784FE70
:1006B0009307070093973700B387E70093972700C6
:1006C0001387C102B387E70013064002832504FEA7
:1006D00013850700EFB0C85C832784FE938717005B
:1006E0002324F4FE6FF05FF9B71780009387079318
:1006F0002320F4FE13060002832504FE1385C16E39
:10070000EFB0085A232204FE032744FE9307F007A4
:1007100063C6E706032744FE930707009397370055
:10072000B387E7009397270013870700B717800068
:1007300093870795B307F7002320F4FE032744FEB1
:100740009307070093973700B387E7009397270035
:1007500037B70E001307C7FFB387E7001306400241
:10076000832504FE13850700EFB08853832744FEDA
:10077000938717002322F4FE6FF01FF9B72780003C
:10078000938707B52320F4FE13060004832504FE97
:10079000B7C70E001385C71FEFB08850B71780008A
:1007A000938707992320F4FE37060200832504FE71
:1007B000B7C70E001385C723EFB0884EB717820066
:1007C000938707992320F4FE13060020832504FE57
:1007D000B7C710001385C723EFB0884CB717820046
:1007E000938707B92320F4FEB7170000138607404C
:1007F000832504FEB7C710001385C743EFB0484AEE
:10080000B7178200938707992320F4FE130680020E
:10081000832504FEB7E710001385C783EFB048486F
:1008200093070000138507008320C1010324810181
:100830001301010267800000130101FE232E110045
:10084000232C8100130401022326A4FE2324B4FEDA
:100850000327C4FE930710006318F702032784FEE2
:10086000B70701009387F7FF6310F702138541DB99
:10087000EF20D05213864185938541DBB7370100C5
:1008800013858762EF809820130000008320C10148
:10089000032481011301010267800000130101FF9D
:1008A000232611002324810013040101B70701004E
:1008B0009385F7FF13051000EFF01FF88320C100A8
:1008C000032481001301010167800000130101FE70
:1008D000232E8100130401022326A4FE93070000A7
:1008E000138507000324C101130101026780000082
:1008F000130101812326117E2324817E2322917EF0
:100900001304017F3793FFFF130303D23301610008
:10091000B787FFFF130704FFB307F7001387875656
:10092000B7870000938707A8138607009305000088
:1009300013050700EFB0884AB787FFFF130704FFCE
:10094000B307F70023A0075423A2075423A4075496
:1009500023A6075423A8075423AA075423AC0754FB
:1009600023AE075423A0075623A20756232604FECE
:10097000EFF09FC7930705002320F4FE832704FEB2
:1009800063880702832504FEB74711001385077F9C
:10099000EF10D16013070500B7270200938507E623
:1009A00013050700EF000161930720006F00002C82
:1009B000232404FE032784FE9307100363CAE7245D
:1009C000032784FE9307070093972700B387E70068
:1009D0009397170013850700832784FE138717005A
:1009E0009307070093972700B387E70093971700B3
:1009F00093850700B787FFFF93870754130704FF0A
:100A00003307F700B787FFFF93878756930604FFE6
:100A1000B387F6009306070013860700EFF01FB2B6
:100A2000930705002320F4FE832704FE6388070252
:100A3000832504FEB74711001385077FEF10115679
:100A400013070500B7270200938507E61305070083
:100A5000EF004156930710006F004021232204FE4F
:100A6000032744FE9307900063CCE718B787FFFF86
:100A700093878756130704FF3307F700832644FE46
:100A8000B7170000938707C4B387F602B307F700D0
:100A900013850700EF00402B93070500232EF4FC7D
:100AA000B787FFFF130704FF3307F700832744FED0
:100AB00093972700B307F70083A70754232CF4FC70
:100AC000032784FD8327C4FD6312F708B7570B0083
:100AD00093850702B74711001385077FEF10511365
:100AE00093070500832584FE13850700EF10114B43
:100AF00013070500B7570B009385C70213050700BE
:100B0000EF10111193070500832544FE138507009C
:100B1000EF10D14813070500B7570B009385C703A3
:100B200013050700EF10D10E13070500B7270200C9
:100B3000938507E613050700EF00C1478327C4FE2E
:100B4000938717002326F4FE6F00800AB7570B0027
:100B500093850702B74711001385077FEF10510BEC
:100B600093070500832584FE13850700EF101143CA
:100B700013070500B7570B009385C702130507003D
:100B8000EF10110993070500832544FE1385070024
:100B9000EF10D14013070500B7570B00938587046A
:100BA00013050700EF10D10693070500832584FD88
:100BB00013850700EF10913E13070500B7570B0090
:100BC0009385470513050700EF109104930705006F
:100BD0008325C4FD13850700EF10513C1307050062
:100BE000B7270200938507E613050700EF00813C55
:100BF000832744FE938717002322F4FE6FF05FE6FD
:100C0000832784FE938717002324F4FE6FF09FDA76
:100C1000B7570B0093858705B74711001385077FEA
:100C2000EF10017F930405000325C4FEEF40585DDB
:100C300013070500B7570B0083A507071305070027
:100C4000EF404815930705009385070013850400BE
:100C5000EF20014C13070500B7270200938507E634
:100C600013050700EF000135930700001385070007
:100C7000377300001303032E330161008320C17E0C
:100C80000324817E8324417E1301017F678000005D
:100C9000130101FE232E1100232C810013040102F5
:100CA0002326A4FE2324B4FE0327C4FE93071000CA
:100CB0006318F702032784FEB70701009387F7FF45
:100CC0006310F702138581DBEF20500D13864185F9
:100CD000938581DBB737010013858762EF80085B5E
:100CE000130000008320C1010324810113010102CC
:100CF00067800000130101FF2326110023248100D7
:100D000013040101B70701009385F7FF13051000D5
:100D1000EFF01FF88320C1000324810013010101BB
:100D200067800000130101FE232E810013040102DD
:100D30002326A4FE93070000138507000324C101A6
:100D40001301010267800000130101FE232E110030
:100D5000232C8100130401022326A4FE0325C4FED4
:100D6000EF008003EF008012EF00401BEF00402DEA
:100D7000EF00803EEF00C045EF004053EF00C05849
:100D800093070500138507008320C1010324810117
:100D90001301010267800000130101812326117EE7
:100DA0002324817E1304017F130101ECB7F7FFFFB9
:100DB000130704FFB307F70023A6A76E232604FE3C
:100DC0000327C4FE9307500063C6E70A0327C4FE47
:100DD000930740063307F7029387C1DB3307F70019
:100DE000B7F7FFFF9387C76F930604FFB386F6003C
:100DF000B7F7FFFF130604FFB307F60013860600DC
:100E00009305070003A5C76EEF00C05F0327C4FE6C
:100E10009307070093973700B387E70093978700FE
:100E200037E7100013074786B386E7008327C4FE21
:100E300093874709139727009387C1DBB307F70010
:100E400013878700B7F7FFFF9387C76F130604FF69
:100E5000B307F60013060700938506001385070005
:100E6000EF0000738327C4FE938717002326F4FE48
:100E70006FF01FF513000000130101148320C17EE1
:100E80000324817E1301017F67800000130101FEAE
:100E9000232E1100232C810013040102232604FEBB
:100EA0000327C4FE9307500063C0E7060327C4FE70
:100EB0009307070093973700B387E700939787005E
:100EC00037E7100013074786B386E7000327C4FE01
:100ED0009307070093973700B387E700939767005E
:100EE00037171100130747E6B387E700938507001C
:100EF00013850600EF00007A8327C4FE938717004E
:100F00002326F4FE6FF0DFF9130000008320C101F7
:100F1000032481011301010267800000130101D83D
:100F2000232E1126232C812613040128232604FEB8
:100F30000327C4FE9307700063CAE70E232404FE50
:100F4000032784FE9307500063CCE706930604D87A
:100F5000032784FE9307070093973700B387E700C2
:100F600093972700B386F6000327C4FE9307070074
:100F700093971700B387E70093971700138707002D
:100F8000832784FE3307F700930707009397370002
:100F9000B387E700939727001387C102B387E70061
:100FA000130640029385070013850600EFA0584FF3
:100FB000832784FE938717002324F4FE6FF05FF8E5
:100FC000130784E5930704D81306070093850700E9
:100FD000B7171100138547E6EF00D0150327C4FEAD
:100FE000930700193307F702B7271100938747BE0D
:100FF000B306F7008327C4FE9387071B13972700C8
:101000009387C1023307F700930784E513060700AF
:101010009385060013850700EF0010208327C4FE88
:10102000938717002326F4FE6FF09FF01300000053
:101030008320C12703248127130101286780000032
:10104000130101DC232E1122232C812213040124FD
:10105000232604FE0327C4FE9307F00063C4E70EB3
:10106000232404FE032784FE9307700063C6E7066B
:10107000930684EC032784FE9307070093973700B9
:10108000B387E70093972700B386F6008327C4FE53
:1010900013973700832784FE3307F7009307070071
:1010A00093973700B387E7009397270037B70E0071
:1010B0001307C7FFB387E7001306400293850700B5
:1010C00013850600EFA0D83D832784FE9387170081
:1010D0002324F4FE6FF01FF9130784DC930784ECDC
:1010E0001306070093850700B7271100138547BE35
:1010F000EF00D0228327C4FE13978700B737110073
:1011000093874786B306F7008327C4FE9387074873
:1011100013972700B7B70E009387C7FF3307F70071
:10112000930784DC130607009385060013850700E8
:10113000EF00502C8327C4FE938717002326F4FE6C
:101140006FF05FF1130000008320C123032481238B
:101150001301012467800000130101FE232E1100FA
:10116000232C810013040102232604FE0327C4FE5E
:101170009307F00063C4E7048327C4FE1397870036
:10118000B737110093874786B306F7008327C4FE5D
:1011900013976700B747110093874786B307F70097
:1011A0009385070013850600EF0010338327C4FEE4
:1011B000938717002326F4FE6FF05FFB13000000F7
:1011C0008320C10103248101130101026780000013
:1011D000130101FE232E810013040102232604FEC5
:1011E0000327C4FE9307F00063CAE70A232404FE22
:1011F000032784FE9307300063CAE708232204FE16
:10120000032744FE9307300063CAE706832784FE62
:1012100013972700832744FEB307F700139747006F
:101220008327C4FEB306F700B74711000327C4FEA7
:1012300013162700032784FE3307E6001316270042
:10124000032744FE3307E6001317270093874786DA
:10125000B307F70003A70700B747110093962600CE
:10126000938747C6B387F60023A0E700832744FE91
:10127000938717002322F4FE6FF09FF8832784FEE4
:10128000938717002324F4FE6FF09FF68327C4FE94
:10129000938717002326F4FE6FF09FF413000000DD
:1012A0000324C1011301010267800000130101DF63
:1012B000232611202324812013040121930704DF16
:1012C00013860700B7C70E009385C723B7471100E1
:1012D000138547C6EF001041130704DFB7C710009E
:1012E0001386C723B74711009385470613050700E8
:1012F000EF00D04D130000008320C1200324812083
:101300001301012167800000130101FC232E11024B
:10131000232C810213040104930784FC1386070025
:10132000B7C710009385C743B74711001385470619
:10133000EF005055130784FCB7C710001386C7236E
:10134000B74711009385472613050700EF00106289
:1013500093070500138507008320C103032481033D
:101360001301010467800000130101FE232E110008
:10137000232C8100130401022326A4FE2324B4FE9F
:101380000327C4FE93071000631CF702032784FEA3
:10139000B70701009387F7FF6314F702B7471100FF
:1013A0001385C728EF20801F13864185B74711009A
:1013B0009385C728B737010013858762EF70186DD2
:1013C000130000008320C1010324810113010102E5
:1013D00067800000130101FF2326110023248100F0
:1013E00013040101B70701009385F7FF13051000EF
:1013F000EFF09FF78320C100032481001301010156
:1014000067800000130101FC232E1102232C8102AE
:10141000130401042326A4FC2324B4FC2322C4FCCB
:1014200093078001232CF4FC232604FE0327C4FE2B
:10143000832784FD6354F714232404FE032784FECA
:10144000832784FD6354F712930700002322F4FEE0
:10145000232004FE032704FE9307400063C6E70C25
:10146000232E04FC0327C4FD9307400063C6E70A4C
:101470000327C4FE832704FEB307F7001387070082
:101480009307070093973700B387E7409397470088
:10149000138707008327C4FC3387E700832684FE75
:1014A0008327C4FDB387F60093972700B307F7009F
:1014B00083A60700032704FE9307070093972700DE
:1014C000B387E7009397270013870700832784FCDF
:1014D0003387E7008327C4FD93972700B307F700FE
:1014E00083A707009385070013850600EF30D857C0
:1014F0009307050093850700032544FEEF30484419
:10150000930705002322F4FE8327C4FD9387170069
:10151000232EF4FC6FF01FF5832704FE938717003A
:101520002320F4FE6FF01FF30327C4FE9307070088
:1015300093971700B387E700939757001387070027
:10154000832744FC3387E700832784FE9397270093
:10155000B307F700032744FE23A0E700832784FE98
:10156000938717002324F4FE6FF05FED8327C4FEFA
:10157000938717002326F4FE6FF05FEB1300000043
:101580008320C10303248103130101046780000049
:10159000130101FD2326110223248102232291023B
:1015A00013040103232EA4FC232CB4FC232AC4FC23
:1015B000232604FE0327C4FE9307700163C0E70CD3
:1015C000232404FE032784FE9307700163C0E70A07
:1015D0000327C4FE9307070093971700B387E7001C
:1015E00093975700138707008327C4FD3387E700CD
:1015F000832784FE93972700B307F70003A707000C
:10160000832744FD83A70700938507001305070080
:10161000EF300833930705002322F4FE0327C4FEAE
:101620009307070093971700B387E7009397570036
:1016300013870700832784FDB384E700930744FEE4
:1016400013850700EF10802013070500832784FE11
:1016500093972700B387F40023A0E700832784FE35
:10166000938717002324F4FE6FF0DFF58327C4FE71
:10167000938717002326F4FE6FF0DFF313000000BA
:101680008320C10203248102832441021301010348
:1016900067800000130101FD23261102232481022B
:1016A00013040103232EA4FC232CB4FC232604FEE4
:1016B0000327C4FE9307700163C4E726232404FEB6
:1016C000032784FE9307700163C4E7240327C4FE45
:1016D0009307070093971700B387E7009397570086
:1016E000138707008327C4FD3387E700832784FE21
:1016F00093972700B307F70083A607000327C4FECC
:101700009307070093971700B387E7009397570055
:10171000138707008327C4FD3387E700832784FEF0
:101720009387170093972700B307F70083A7070055
:101730009385070013850600EF309819930705007D
:10174000635CF0020327C4FE93070700939717001A
:10175000B387E70093975700138707008327C4FDDB
:101760003387E700832784FE93972700B307F700AA
:1017700083A707006F0080030327C4FE93070700B9
:1017800093971700B387E7009397570013870700D5
:101790008327C4FD3387E700832784FE93871700E0
:1017A00093972700B307F70083A707002322F4FECF
:1017B0008327C4FE1387170093070700939717002A
:1017C000B387E70093975700138707008327C4FD6B
:1017D0003387E700832784FE93972700B307F7003A
:1017E00083A607008327C4FE13871700930707000B
:1017F00093971700B387E700939757001387070065
:101800008327C4FD3387E700832784FE938717006F
:1018100093972700B307F70083A707009385070076
:1018200013850600EF30D80A93070500635EF002C7
:101830008327C4FE138717009307070093971700A9
:10184000B387E70093975700138707008327C4FDEA
:101850003387E700832784FE93972700B307F700B9
:1018600083A707006F00C0038327C4FE13871700F8
:101870009307070093971700B387E70093975700E4
:10188000138707008327C4FD3387E700832784FE7F
:101890009387170093972700B307F70083A70700E4
:1018A0002320F4FE832504FE032544FEEF30580276
:1018B000930705006356F000032744FE6F00800085
:1018C000032704FE8327C4FE93D71740938607009F
:1018D0009387060093971700B387D7009397470025
:1018E00093860700832784FDB386D700832784FE71
:1018F00093D7174093972700B387F60023A0E700FC
:10190000832784FE938727002324F4FE6FF05FDB98
:101910008327C4FE938727002326F4FE6FF05FD948
:10192000130000008320C10203248102130101037C
:1019300067800000130101CB232611342324813456
:1019400013040135232EA4CA232CB4CA232AC4CAE3
:101950009307C4E513070019130607009305000059
:1019600013850700EFA08847232604FE0327C4FE43
:101970009307500063CEE7060327C4FE93070700D2
:1019800093973700B387E7009397670013870700A3
:101990008327C4CBB386E7000327C4FE9307070061
:1019A00093973700B387E7009397270013870700C3
:1019B000832784CBB387E7001307C4CC1306070043
:1019C0009385070013850600EF0090151307C4CC1C
:1019D0009307C4E59305070013850700EF00102D5A
:1019E0008327C4FE938717002326F4FE6FF01FF8A9
:1019F0009307C4E51306001993850700032544CB1C
:101A0000EFA0082A130000008320C134032481348E
:101A10001301013567800000130101FD2326110227
:101A2000232481022322910213040103232EA4FC08
:101A3000232CB4FC232AC4FC232604FE0327C4FE63
:101A40009307900063C0E70C232404FE032784FE61
:101A50009307900063C0E70A0327C4FE93070700BB
:101A600093972700B387E700939737001387070002
:101A70008327C4FD3387E700832784FE93972700DD
:101A8000B307F70003A70700832744FD83A70700D8
:101A90009385070013050700EF20986A9307050058
:101AA0002322F4FE0327C4FE930707009397270021
:101AB000B387E7009397370013870700832784FDD8
:101AC000B384E700930744FE13850700EF00105826
:101AD00013070500832784FE93972700B387F4003C
:101AE00023A0E700832784FE938717002324F4FEB6
:101AF0006FF0DFF58327C4FE938717002326F4FEDB
:101B00006FF0DFF3130000008320C1020324810281
:101B1000832441021301010367800000130101DDEA
:101B2000232611222324812213040123232EA4DC43
:101B3000232CB4DC232AC4DC9307C4EE1307001063
:101B4000130607009305000013850700EFA008297E
:101B5000232604FE0327C4FE9307700063C8E7062C
:101B60000327C4FE93070019B307F7020327C4DD58
:101B7000B306F7000327C4FE9307070093973700C7
:101B8000B387E7009397270013870700832784DD37
:101B9000B387E7001307C4DE130607009385070029
:101BA00013850600EF0010221307C4DE9307C4EE6E
:101BB0009305070013850700EF0090388327C4FEC4
:101BC000938717002326F4FE6FF0DFF89307C4EE27
:101BD0001306001093850700032544DDEFA0480C91
:101BE000130000008320C12203248122130101235A
:101BF00067800000130101FD2326110223248102C6
:101C00002322910213040103232EA4FC232CB4FCF1
:101C1000232AC4FC232604FE0327C4FE9307700076
:101C200063C0E70A232404FE032784FE93077000A1
:101C300063C0E7088327C4FE939757000327C4FDBA
:101C40003307F700832784FE93972700B307F70035
:101C500003A70700832744FD83A707009385070098
:101C600013050700EF20D84D930705002322F4FE4B
:101C70008327C4FE93975700032784FDB304F7001E
:101C8000930744FE13850700EF00503C130705003F
:101C9000832784FE93972700B387F40023A0E700EF
:101CA000832784FE938717002324F4FE6FF0DFF769
:101CB0008327C4FE938717002326F4FE6FF0DFF519
:101CC000130000008320C102032481028324410207
:101CD0001301010367800000130101FD2326110297
:101CE0002324810213040103232EA4FC232CB4FC1F
:101CF000232604FE0327C4FE9307700063CAE71C73
:101D0000232404FE032784FE9307700063CAE71AA6
:101D10008327C4FE939757000327C4FD3307F700BA
:101D2000832784FE93972700B307F70083A6070055
:101D30008327C4FE939757000327C4FD3307F7009A
:101D4000832784FE9387170093972700B307F70034
:101D500083A707009385070013850600EF304837F7
:101D6000930705006354F0028327C4FE939757003E
:101D70000327C4FD3307F700832784FE93972700CA
:101D8000B307F70083A707006F0080028327C4FE14
:101D9000939757000327C4FD3307F700832784FE7A
:101DA0009387170093972700B307F70083A70700CF
:101DB0002322F4FE8327C4FE9387170093975700CE
:101DC0000327C4FD3307F700832784FE939727007A
:101DD000B307F70083A607008327C4FE9387170085
:101DE000939757000327C4FD3307F700832784FE2A
:101DF0009387170093972700B307F70083A707007F
:101E00009385070013850600EF30882C93070500A3
:101E10006356F0028327C4FE9387170093975700F9
:101E20000327C4FD3307F700832784FE9397270019
:101E3000B307F70083A707006F00C0028327C4FE23
:101E400093871700939757000327C4FD3307F700C4
:101E5000832784FE9387170093972700B307F70023
:101E600083A707002320F4FE832504FE032544FEF8
:101E7000EF300826930705006356F000832744FEE1
:101E80006F008000832704FE0327C4FE135717400A
:101E900013174700832684FDB386E600032784FEDC
:101EA00013571740131727003387E6002320F70046
:101EB000832784FE938727002324F4FE6FF09FE49A
:101EC0008327C4FE938727002326F4FE6FF09FE24A
:101ED000130000008320C1020324810213010103C7
:101EE00067800000130101FD2326110223248102D3
:101EF00013040103232EA4FC232CB4FC232AC4FCCA
:101F0000232604FE0327C4FE9307F00763C6E70AEF
:101F1000930700002324F4FE232204FE032744FE3B
:101F20009307F00F63C6E706832744FE93972700C5
:101F30000327C4FDB307F70083A607008327C4FE69
:101F40009397A700032784FD3307F700832744FEF8
:101F500093972700B307F70083A70700938507002F
:101F600013850600EF30483093070500938507007E
:101F7000032584FEEF20D81C930705002324F4FEDC
:101F8000832744FE938717002322F4FE6FF01FF986
:101F90008327C4FE93972700032744FDB307F70068
:101FA000032784FE23A0E7008327C4FE938717003E
:101FB0002326F4FE6FF01FF5130000008320C102FA
:101FC000032481021301010367800000130101FD56
:101FD00023261102232481022322910213040103E8
:101FE000232EA4FC232CB4FC232AC4FC232604FEA9
:101FF0000327C4FE9307F00763CAE7068327C4FEDE
:10200000939727000327C4FDB307F70083A60700B3
:102010008327C4FE93972700032744FDB307F700E7
:1020200083A707009385070013850600EF2058114A
:10203000930705002324F4FE8327C4FE939727000B
:10204000032784FDB304F700930784FE138507007C
:10205000EF00C07F9307050023A0F4008327C4FE90
:10206000938717002326F4FE6FF09FF813000000FB
:102070008320C1020324810283244102130101034E
:1020800067800000130101FD232611022324810231
:1020900013040103232EA4FC232CB4FC232AC4FC28
:1020A000232604FE0327C4FE9307900063C6E70AB5
:1020B000930700002324F4FE232204FE032744FE9A
:1020C0009307F00763C6E706832744FE939727002C
:1020D0000327C4FDB307F70083A607008327C4FEC8
:1020E00093979700032784FD3307F700832744FE67
:1020F00093972700B307F70083A70700938507008E
:1021000013850600EF3048169307050093850700F6
:10211000032584FEEF20D802930705002324F4FE54
:10212000832744FE938717002322F4FE6FF01FF9E4
:102130008327C4FE93972700032744FDB307F700C6
:10214000032784FE23A0E7008327C4FE938717009C
:102150002326F4FE6FF01FF5130000008320C10258
:10216000032481021301010367800000130101FCB5
:10217000232E1102232C8102232A9102130401042D
:102180002326A4FC2324B4FC2322C4FC93070000D0
:102190002326F4FE232404FE232204FE032744FE08
:1021A0009307900063CAE706832744FE93972700AE
:1021B0000327C4FCB307F70083A60700832744FE68
:1021C00093972700032744FCB307F70083A7070072
:1021D0009385070013850600EF2088769307050096
:1021E000232CF4FC930784FD13850700EF00407354
:1021F00093070500938507000325C4FEEF2048746C
:10220000930705002326F4FE832744FE93871700D7
:102210002322F4FE6FF09FF8232004FE032704FE20
:102220009307900063CAE706832704FE939727006D
:102230000327C4FCB307F70083A60700832704FE27
:1022400093972700032744FCB307F70083A70700F1
:102250009385070013850600EF20886E930705001D
:1022600093860700832704FE93972700032784FCA7
:10227000B304F7008325C4FE13850600EF209831D0
:102280009307050023A0F400832704FE938717001B
:102290002320F4FE6FF09FF8232E04FC0327C4FDD7
:1022A0009307900063C0E7068327C4FD9397270038
:1022B000032784FCB307F70083A60700832784FE67
:1022C00093972700032784FCB307F70083A7070031
:1022D0009385070013850600EF20985F930705009C
:1022E0006356F0008327C4FD6F008000832784FEBF
:1022F0002324F4FE8327C4FD93871700232EF4FCC8
:102300006FF0DFF9832784FE138507008320C10364
:102310000324810383244103130101046780000027
:10232000130101FC232E1102232C8102130401044A
:102330002326A4FC2324B4FC2322C4FC9307A0007E
:10234000232CF4FC232604FE0327C4FE832784FDEC
:102350006354F714232404FE032784FE832784FD9B
:102360006354F712930700002322F4FE232004FE97
:10237000032704FE9307200063C6E70C232E04FC0A
:102380000327C4FD9307200063C6E70A0327C4FEA2
:10239000832704FEB307F70013870700930707009E
:1023A00093971700B387E7009397470013870700B9
:1023B0008327C4FC3387E700832684FE8327C4FD7C
:1023C000B387F60093972700B307F70083A60700AB
:1023D000032704FE9307070093971700B387E700CE
:1023E0009397270013870700832784FC3387E70030
:1023F0008327C4FD93972700B307F70083A707003F
:102400009385070013850600EF20186693070500E3
:1024100093850700032544FEEF20885293070500AB
:102420002322F4FE8327C4FD93871700232EF4FC98
:102430006FF01FF5832704FE938717002320F4FE17
:102440006FF01FF30327C4FE93070700939727003D
:10245000B387E7009397370013870700832744FC6F
:102460003387E700832784FE93972700B307F7009D
:10247000032744FE23A0E700832784FE93871700E9
:102480002324F4FE6FF05FED8327C4FE93871700CB
:102490002326F4FE6FF05FEB130000008320C103DE
:1024A000032481031301010467800000130101FD6F
:1024B0002326110223248102232291021304010303
:1024C000232EA4FC232CB4FC232604FE0327C4FEE5
:1024D0009307900063CCE70C232404FE032784FEBB
:1024E0009307900063CCE70A0327C4FE9307070015
:1024F00093972700B387E700939737001387070068
:102500008327C4FD3387E700832784FE9397270042
:10251000B307F70083A607000327C4FE930707004D
:1025200093972700B387E700939737001387070037
:10253000832784FD3387E700832784FE9397270052
:10254000B307F70003A607000327C4FE930707009D
:1025500093972700B387E700939737001387070007
:102560008327C4FDB384E7009305060013850600A6
:10257000EF20083D9307050013870700832784FE9B
:1025800093972700B387F40023A0E700832784FEF6
:10259000938717002324F4FE6FF05FF48327C4FEB3
:1025A000938717002326F4FE6FF05FF213000000FC
:1025B0008320C10203248102832441021301010309
:1025C00067800000130101FC232E1102232C8102DD
:1025D000130401042326A4FC2324B4FC2322C4FCFA
:1025E00093078000232CF4FC232604FE0327C4FE5B
:1025F000832784FD635CF712232404FE032784FEF3
:10260000832784FD635CF710930700002322F4FE08
:10261000232004FE032704FE9307200063C6E70C73
:10262000232E04FC0327C4FD9307200063C6E70A9A
:102630000327C4FE832704FEB307F70013870700B0
:102640009307070093972700B387E7009397370016
:10265000138707008327C4FC3387E700832684FEA3
:102660008327C4FDB387F60093972700B307F700CD
:1026700083A60700032704FE93070700939717001C
:10268000B387E7009397270013870700832784FC0D
:102690003387E7008327C4FD93972700B307F7002C
:1026A00083A707009385070013850600EF20D83B1A
:1026B0009307050093850700032544FEEF20482873
:1026C000930705002322F4FE8327C4FD9387170098
:1026D000232EF4FC6FF01FF5832704FE9387170069
:1026E0002320F4FE6FF01FF38327C4FE9397570057
:1026F000032744FC3307F700832784FE93972700C2
:10270000B307F700032744FE23A0E700832784FED6
:10271000938717002324F4FE6FF05FEE8327C4FE37
:10272000938717002326F4FE6FF05FEC1300000080
:102730008320C10303248103130101046780000087
:10274000130101FD23261102232481022322910279
:1027500013040103232EA4FC232CB4FC232604FE23
:102760000327C4FE9307700063C4E70A232404FE12
:10277000032784FE9307700063C4E7088327C4FE21
:10278000939757000327C4FD3307F700832784FE80
:1027900093972700B307F70083A607008327C4FE9B
:1027A00093975700032784FD3307F700832784FEA0
:1027B00093972700B307F70003A607008327C4FEFB
:1027C000939757000327C4FDB304F7009305060051
:1027D00013850600EF20C81693070500138707002E
:1027E000832784FE93972700B387F40023A0E70094
:1027F000832784FE938717002324F4FE6FF05FF78E
:102800008327C4FE938717002326F4FE6FF05FF53D
:10281000130000008320C1020324810283244102AB
:102820001301010367800000130101FE232E8100C4
:10283000130401022326A4FE93070000138507005A
:102840000324C1011301010267800000130101FD8F
:102850002326110223248102232291022320210313
:1028600013040103232EA4FC0325C4FDEF00400B39
:10287000930405008327C4FD03A70700B707008062
:10288000B347F7002322F4FE930744FE13850700A5
:10289000EF000009930705009385070013850400E6
:1028A000EF20984E93070500938407000325C4FD8D
:1028B000EF000007130905008327C4FD03A70700E5
:1028C000B7070080B347F7002324F4FE930784FE84
:1028D00013850700EF00C0049307050093850700E8
:1028E00013050900EF20C80593070500938507002D
:1028F00013850400EF20084A930705002326F4FE01
:102900008327C4FE138507008320C10203248102AC
:10291000832441020329010213010103678000009F
:10292000130101F72326110823248108232291088B
:102930002320210913040109232EA4F68327C4F7B9
:1029400003A70700B7570B0083A547071305070028
:10295000EF10187F9307050093840700930720006A
:102960002326F4F89307C4F8938507000325C4F7DA
:10297000EF00805513090500930720002328F4F881
:10298000930704F913850700EF00C05B9307050068
:1029900013850700EF30C8069307050093850700ED
:1029A00013050900EF20083F9307050093850700F2
:1029B00013850400EF10D87893070500938407006F
:1029C00093073000232AF4F8930744F9938507000E
:1029D0000325C4F7EF00404F1309050093073000AB
:1029E000232CF4F8930784F913850700EF00805532
:1029F0009307050013850700EF3088009307050053
:102A00009385070013050900EF20C83893070500D8
:102A10009385070013850400EF1098729307050053
:102A20009384070093074000232EF4F89307C4F91A
:102A3000938507000325C4F7EF000049130905003B
:102A4000930740002320F4FA930704FA1385070044
:102A5000EF00404F9307050013850700EF20587AD9
:102A6000930705009385070013050900EF208832BE
:102A7000930705009385070013850400EF10586C39
:102A80009307050093840700930750002322F4FA6C
:102A9000930744FA938507000325C4F7EF00C0426B
:102AA00013090500930750002324F4FA930784FACE
:102AB00013850700EF000049930705001385070001
:102AC000EF2018749307050093850700130509008C
:102AD000EF20482C93070500938507001385040019
:102AE000EF101866930705009384070093076000B2
:102AF0002326F4FA9307C4FA938507000325C4F745
:102B0000EF00803C13090500930760002328F4FAC6
:102B1000930704FB13850700EF00C04293070500ED
:102B200013850700EF20D86D9307050093850700F4
:102B300013050900EF200826930705009385070079
:102B400013850400EF10D85F9307050093840700F6
:102B500093077000232AF4FA930744FB9385070038
:102B60000325C4F7EF0040361309050093077000F2
:102B7000232CF4FA930784FB13850700EF00803CB5
:102B80009307050013850700EF209867930705005A
:102B90009385070013050900EF20C81F9307050060
:102BA0009385070013850400EF10985993070500DB
:102BB0009384070093078000232EF4FA9307C4FB45
:102BC000938507000325C4F7EF00003013090500C3
:102BD000930780002320F4FC930704FC138507006F
:102BE000EF0040369307050013850700EF2058617A
:102BF000930705009385070013050900EF20881946
:102C0000930705009385070013850400EF105853C0
:102C10009307050093840700930790002322F4FC98
:102C2000930744FC938507000325C4F7EF00C029F0
:102C300013090500930790002324F4FC930784FCF8
:102C400013850700EF000030930705001385070088
:102C5000EF20185B93070500938507001305090013
:102C6000EF204813930705009385070013850400A0
:102C7000EF10184D93070500938407009307A000F9
:102C80002326F4FC9307C4FC938507000325C4F7AF
:102C9000EF008023130905009307A0002328F4FC0C
:102CA000930704FD13850700EF00C0299307050073
:102CB00013850700EF20D85493070500938507007C
:102CC00013050900EF20080D930705009385070001
:102CD00013850400EF10D84693070500938407007E
:102CE0009307A000232AF4FC930744FD9385070073
:102CF0000325C4F7EF00401D130905009307A0004A
:102D0000232CF4FC930784FD13850700EF00802338
:102D10009307050013850700EF20984E93070500E1
:102D20009385070013050900EF20C80693070500E7
:102D30009385070013850400EF1098409307050062
:102D4000938407009307B000232EF4FC9307C4FD7F
:102D5000938507000325C4F7EF000017130905004A
:102D60009307B0002320F4FE930704FE13850700A9
:102D7000EF00401D9307050013850700EF2058481A
:102D8000930705009385070013050900EF208800CD
:102D9000930705009385070013850400EF10583A48
:102DA00093070500938407009307C0002322F4FED5
:102DB000930744FE938507000325C4F7EF00C01076
:102DC000130905009307C0002324F4FE930784FE33
:102DD00013850700EF000017930705001385070010
:102DE000EF2018429307050093850700130509009B
:102DF000EF10587A930705009385070013850400A8
:102E0000EF101834930705002326F4FE8327C4FE31
:102E1000138507008320C108032481088324410807
:102E2000032901081301010967800000130101FE55
:102E3000232E1100232C8100130401022326A4FE5B
:102E40002324B4FE0327C4FE93071000631CF7027B
:102E5000032784FEB70701009387F7FF6314F70287
:102E6000B747110013850729EF004073138641858A
:102E7000B747110093850729B7370100138587628B
:102E8000EF60C840130000008320C10103248101CA
:102E90001301010267800000130101FF23261100C6
:102EA0002324810013040101B70701009385F7FF74
:102EB00013051000EFF09FF78320C1000324810069
:102EC0001301010167800000130101FD2326110297
:102ED0002324810213040103232EA4FC232CB4FC1D
:102EE000B7570B0083A747072326F4FE232404FECD
:102EF000832784FD83A70700032784FE6358F70216
:102F00008327C4FD83A70700938507000325C4FE1C
:102F1000EF208835930705002326F4FE832784FEDF
:102F2000938717002324F4FE6FF09FFC8327C4FED1
:102F3000138507008320C1020324810213010103CA
:102F400067800000130101FD2326810213040103A1
:102F5000232EA4FC8327C4FD83A7070063960700E4
:102F6000930710006F0080058327C4FD83A7070027
:102F700063D607009307F0FF6F004004930710002B
:102F80002326F4FE8327C4FD83A707002324F4FE31
:102F9000832784FE6352F0020327C4FE832784FE46
:102FA000B307F7022326F4FE832784FE9387F7FFF7
:102FB0002324F4FE6FF0DFFD8327C4FE1385070092
:102FC0000324C1021301010367800000130101FD06
:102FD000232C410183A701A423248101374C110034
:102FE000232611022324810223202103232E3101D1
:102FF000232A5101232861012326710123229101F3
:1030000013044C2E2322910237890B0037451100FF
:1030100083A48700130710001309C9651305053041
:103020002322040023240400232604002328040070
:10303000232A0400232C04002382E19A23222C2F2C
:10304000EF10C04683A701A4930AF0FFB74911000F
:103050002320940223225403B7740B0013844929BC
:103060003745110003AB4700938404D31305052BA8
:103070002322040023240400232604002328040020
:10308000232A0400232C040023229C2E23AA29296E
:10309000EF10C04183A701A4B74B110023225403B2
:1030A00023206403374511001384CB2B03ABC700E7
:1030B0001305852D23220400232404002326040065
:1030C00023280400232A0400232C0400B74C1100F9
:1030D00023AA992823AE2B2BEF10403D13854C7F5C
:1030E00023AE9B2A2320640323225403EF20072DC1
:1030F000B7471100B77A0B009384077F377B0B002B
:10310000938A0ABF130BCBBD93054C2E13854C7FBE
:1031100023AA0406238C0406A38C040623AE04060B
:1031200023A0040823A2040823A4040823A2540112
:1031300023A8677FEF20132537441100130504658A
:10314000EF20C727B7870B00374711009387875BAE
:103150002324F764B7870B00130987649387C75C40
:103160009385492913050465232C0906230E0906B6
:10317000A30E09062320090823220908232409088D
:10318000232609082324F90023220900EF20931F96
:10319000B74911001385C96DEF204722B7471100C9
:1031A0001384876D9385CB2B1385C96D232A040661
:1031B000230C0406A30C0406232E04062320040873
:1031C00023220408232404082322540123AC676D1E
:1031D000EF20531B374C110013058C76EF20071E90
:1031E000B7471100938947769385CB2B13058C76CF
:1031F00023AA0906238C0906A38C090623AE090617
:1032000023A0090823A2090823A4090823A259011D
:1032100023A26777EF2013178327040103A701A4D4
:10322000B7260000B3E7D700B74B11002328F400FE
:10323000232C9906232A940637890B001384CB3557
:1032400037451100832487001309C96913058537A1
:10325000232204002324040023260400232804003E
:10326000232A0400232C040023AE2B35EF10002466
:1032700083A701A4930AF0FFB74911002320940209
:1032800023225403B7740B001384C930374511004F
:1032900003AC4700938404D713058532232204002E
:1032A000232404002326040023280400232A0400E6
:1032B000232C040023AE9B3423A62931EF10001FDA
:1032C00083A701A4374B1100232084032322540336
:1032D0003745110013044B3303AAC7001305053506
:1032E00023220400232404002326040023280400AE
:1032F000232A0400232C0400375C110023A69930F4
:10330000232A2B33EF10801A13054CA3232A9B3258
:103310002320440323225403EF20470AB757110008
:10332000377A0B00938407A3B77A0B00130A8AC17C
:10333000938A4AC09385CB3513054CA323AA040670
:1033400023AC0406238E040623A0040823A2040849
:1033500023A4040823A6040823A2440123A857A3F6
:10336000EF3003043754110013054488EF2007059C
:10337000B7870B00375711009387075E232EF78618
:10338000B7870B001309C7879387475F9385C930B9
:1033900013054488232C0906232E09062300090857
:1033A00023220908232409082326090823280908B9
:1033B0002324F90023220900EF20937EB75911003E
:1033C00013854991EF10977FB75711001384079128
:1033D00093054B3313854991232A0406232C0406B5
:1033E000230E0406232004082322040823240408AF
:1033F000232604082322440123A85791EF20537A5F
:10340000B75B110013854B9AEF10577BB75711002C
:103410009389079A93054B3313854B9A23AA090680
:1034200023AC0906238E090623A0090823A2090854
:1034300023A4090823A6090823A2490123A0579B16
:10344000EF2013760327040183A701D2372600005B
:103450003367C700232A94062328E4008320C1028F
:103460000324810293871700232C990623A0F1D20D
:1034700083244102032901028329C101032A810116
:10348000832A4101032B0101832BC100032C8100FE
:10349000832C41001301010367800000B7870B00F4
:1034A0009387471E1304050023A2F40013854C7F65
:1034B000EF20472413050400EF40C854B7870B00E2
:1034C0009387471F1304050023A2F90013854B9A25
:1034D000EF20472213050400EF40C852B7870B00C6
:1034E0009387471F930405002322F4001385499115
:1034F000EF20472013850400EF40C850B7870B002A
:103500009387471F930405002324F900130544887B
:10351000EF20471E13850400EF40C84EB7870B000D
:103520009387471F1304050023A2F40013054CA33F
:10353000EF20471C13050400EF40C84CB7870B0071
:103540009387471E1304050023A2F90013058C7608
:10355000EF20471A13050400EF40C84AB7870B0055
:103560009387471E930405002322F4001385C96D39
:10357000EF20471813850400EF40C848B7870B00B9
:103580009387471E930405002324F900130504655F
:10359000EF20471613850400EF40C84683A701D2E9
:1035A0009386170023A0D1D26384070067800000B0
:1035B0006FF0DFA183A701D2930620001386F7FFE7
:1035C00023A0C1D26384D700678000003745110073
:1035D000130101FF1305057F23261100EFD0D02B27
:1035E000374511001305856DEFD0102B37451100BD
:1035F00013054576EFD0502A37551100130505A362
:10360000EF0081123755110013050591EF00C1112C
:10361000375511001305059AEF0001118320C100F1
:103620001301010167800000EF20C73D8320C10026
:10363000130101016F200748130101FD23248102BA
:10364000232291022326110223202103232E31015C
:10365000232C410103C4419A631A051C6308041C0E
:1036600083A701D29386170023A0D1D26382071EBD
:1036700037890B00374511001309C965B747110099
:103680001305053023A2272F2382019AEF10C0745F
:1036900037451100B74711001305052B23AA272929
:1036A000EF10807337451100B74711001305852DC2
:1036B00023AE272BEF10407237890B0037451100DE
:1036C0001309C969B74711001305853723AE27359C
:1036D000EF10807037451100B74711001305853290
:1036E00023A62731EF10406F37451100B74711006F
:1036F0001305053523AA2733EF10006E83A701A415
:10370000374A11009306004083A587001306000185
:103710001305CA46EF30013283A701A4B74911004F
:103720009306004083A5470013068000138549389F
:10373000EF30413083A701A43749110093060040C0
:1037400083A5C700130600011305893FEF30812EC2
:10375000374511009305CA461305457FEF10D3572F
:10376000374511009385493813050565EF10D35689
:10377000374511009305893F1305C56DEF10D355EB
:10378000374511009305893F13058576EF10D35413
:1037900083A701A4B74911009306004083A58700C1
:1037A000130600011385095DEF30816A83A701A428
:1037B000374911009306004083A547001306800097
:1037C0001305094EEF30C16883A701A4B744110067
:1037D0009306004083A5C700130600011385845596
:1037E000EF300167375511009385095D130545A337
:1037F000EF204369375511009305094E130545889D
:10380000EF20436837551100938584551305459182
:10381000EF20436737551100938584551305459A6A
:10382000EF2043661305C100EFF0DFD81305040055
:103830008320C1020324810283244102032901025F
:103840008329C101032A810113010103678000005C
:10385000EFF0CFF76FF0DFE1130405001305C100AF
:10386000EFF05FD513050400EF40C819130101FF05
:103870002324810023261100938781A683C7070094
:103880000F00F00F93F7F70F638C07008320C10040
:1038900003248100138541AE1301010167800000FC
:1038A000138581A6EF20076CE30205FE138581A630
:1038B000EF2047718320C10003248100138541AEAE
:1038C0001301010167800000130101FAB7571100CD
:1038D00023282105232E1104232C8104232A91045B
:1038E0002326310523244105232251052320610588
:1038F000232E7103232C8103232A91032328A10360
:103900002326B1031386877F1307E0022324E500F3
:10391000130905002320B5009387877F1307860BC3
:1039200023A0070093874700E31CF7FEB757110059
:10393000938607712322C900938707711387860B2B
:1039400023A0070093874700E31CF7FEB757110039
:103950009387876F2326D9003754110023A80700C7
:1039600023AA07001304C4FE2328F90023A207009A
:1039700023A4070023A6070023A08700EF10C0247C
:103980008347150003470500B7541100939787003C
:10399000B3E7E7009306100013060000930500004C
:1039A000138584FF2310F400EF20011D138684FF8C
:1039B000938581B913050900EF1000623754110097
:1039C000930510001305847CEF40971D1306847C3B
:1039D000938581D313050900EF100060375C110057
:1039E00037570B00130C4CB61307073C3754110024
:1039F0002320EC0037970B00930704AE93061000CA
:103A0000130707BB93050000130504AE2322DC0057
:103A100023240C0023260C0023080C00232A0C006E
:103A2000232C0C00232E0C0023200C0223120C024A
:103A300023020C0623A2D70023A0E70023A48701BA
:103A4000EF20001A130604AE9385C1BE13050900CA
:103A5000EF108058138741AC930710002322F70022
:103A6000B7A70B00938787B8138641AC938581D0A5
:103A7000130509002320F700EF100056138741AD0E
:103A8000930710002322F700B7A70B00938747BCCA
:103A9000138641AD938541D0130509002320F7001B
:103AA000EF108053B75411001384047E9307100065
:103AB0002322F400B7970B00938787B72320F400E5
:103AC000EF10C00B2324A4001386047E938501BE4F
:103AD00013050900EF104050375B110037A70B00AA
:103AE000130B4BE81307C7E1375411002320EB00F9
:103AF00037970B00930744B3930610001307C7C210
:103B00001306000093050000130544B32322DB00D5
:103B100023240B0023260B0023080B00A3080B0013
:103B200023090B00232A0B00232C0B00232E0B0050
:103B300023200B0223220B0223240B0223260B0239
:103B400023280B02232A0B02A3010B0423A2D70074
:103B500023A0E70023A46701EF50D72E130644B338
:103B60009385C1BF13050900EF100047B75A110034
:103B700037A70B00938A8AEC1307C7E2375411006A
:103B800023A0EA0037970B00930704B493061000B4
:103B9000130787BF1306000093050000130504B444
:103BA00023A2DA0023A40A0023A60A0023880A001D
:103BB000A3880A0023890A0023AA0A0023AC0A006A
:103BC00023AE0A0023A00A0223A20A0223A40A02A7
:103BD00023A60A0223A80A0223AA0A02A3810A042E
:103BE00023A2D70023A0E70023A45701EF505713C7
:103BF000130604B4938581BF13050900EF10C03D7F
:103C0000138701AA930710002322F700B7970B0030
:103C1000938747CE138601AA938541BF13050900F8
:103C20002320F700EF10403B138701AB93071000F0
:103C30002322F700B7970B009387C7CF138601ABFA
:103C4000938501BF130509002320F700EF10C0384A
:103C5000B7551100938445CF9307100023A2F400B9
:103C6000B7A70B00938747BF3754110023A0F40078
:103C700023A4040023A6040023A8040023AA04000C
:103C800023AC040023AE040023A0040223A20402F8
:103C900023A4040223A6040223A8040223AA0402E4
:103CA00023AC040223AE040223A0040423A20404D0
:103CB00023A4040423A6040423A8040423AA0404BC
:103CC00023AC040423AE040423A0040623A20406A8
:103CD00023A4040623A6040623A8040623AA040694
:103CE00023AC040623AE040623A004081306100028
:103CF000938545CF130584AF23A2040823A40408A9
:103D000023A6040823A8040823AA040823AC040853
:103D100023AE040823A0040A23A2040A23A4040A4D
:103D200023A6040A23A8040A23AA040A23AC040A2B
:103D300023AE040A23A0040C2382040CEF40460A9D
:103D4000130684AF938501D013050900EF10C02836
:103D5000138701A7930710002322F700B7970B00E2
:103D6000938747D1138601A7938581BE1305090068
:103D70002320F700EF104026138701A893071000B7
:103D80002322F700B7A70B00938787D8138601A8D3
:103D90009385C1CF130509002320F700EF10C0233E
:103DA0003754110093051000130504ACEF50540272
:103DB000130604AC938541BE13050900EF10C02122
:103DC000375411009305100013058421EF3053552B
:103DD000130684219385C1B913050900EF10C01F94
:103DE00037541100930510001305447DEF40C7655B
:103DF0001306447D9385C1D313050900EF10C01D40
:103E0000B75B110037570B00938BCBBC1307073DF3
:103E10003754110023A0EB0037970B009307C4AE73
:103E2000930610001307072A930500001305C4AE7C
:103E300023A2D70023A0E70023A4770123A2DB005D
:103E400023A40B0023A60B0023880B0023AA0B003E
:103E500023AC0B0023AE0B0023A00B0223A20B020A
:103E600023A40B0223820B12EF1050741306C4AE6E
:103E70009385C1C413050900EF1000161387C1AC68
:103E8000930710002322F700B7870B00938707EAF8
:103E90001386C1AC938501B8130509002320F700F0
:103EA000EF1080131387C1AD930710002322F70092
:103EB000B7870B009387C7ED1386C1AD9385C1B754
:103EC000130509002320F700EF100011B759110066
:103ED0001384C97E930710002322F400B7970B00C8
:103EE000938787262320F400EF0050492324A40061
:103EF0001386C97E938501C413050900EF10C00D18
:103F0000375A110037870B00130ACAF013074713FB
:103F1000375411002320EA0037970B009307C4B4ED
:103F2000930610001307C731130600009305000025
:103F30001305C4B423A2D70023A0E70023A447019C
:103F40002322DA0023240A0023260A0023080A0079
:103F5000232A0A00232C0A00232E0A0023200A0207
:103F600023220A0223240A0223260A0223280A0201
:103F7000232A0A02232C0A02232E0A0223060A06F7
:103F8000EF5057261306C4B49385C1C51305090025
:103F9000EF108004B759110037870B009389C9F7D8
:103FA000130747143754110023A0E90037970B007B
:103FB000930784B5930610001307872E130600009D
:103FC00093050000130584B523A2D90023A409009A
:103FD00023A609002388090023AA090023AC0900AD
:103FE00023AE090023A0090223A2090223A4090287
:103FF00023A6090223A8090223AA090223AC090265
:1040000023AE09022386090623A2D70023A0E700D6
:1040100023A43701EF50D709130684B5938581C5D2
:1040200013050900EF00507B138781AA9307100046
:104030002322F700B7970B009387473D138681AA89
:10404000938541C5130509002320F700EF00D078C0
:10405000138781AB930710002322F700B7970B005B
:104060009387C73E138681AB938501C5130509006D
:104070002320F700EF005076B75511001384C5DBFD
:10408000930710002322F400B7870B009387C7F033
:10409000B75D11002320F40023240400232604002C
:1040A00023280400232A0400232C0400232E0400C8
:1040B00023200402232204022324040223260402D0
:1040C00023280402232A0402232C0402232E0402A0
:1040D00023200404232204042324040423260404A8
:1040E00023280404232A0404232C0404232E040478
:1040F0002320040623220406232404062326040680
:1041000023280406232A0406232C0406232E04064F
:1041100023200408130610009385C5DB1385CDB05A
:10412000232204082324040823260408232804083F
:10413000232A0408232C0408232E04082320040A1D
:104140002322040A2324040A2326040A2328040A17
:10415000232A040A232C040A232E040A2320040CF5
:104160002302040CEF30D2411386CDB0938581B782
:1041700013050900EF005066138781A7930710000D
:104180002322F700B7970B0093874740138681A738
:10419000938581C4130509002320F700EF00D06345
:1041A000138781A8930710002322F700B7870B001D
:1041B0009387070A138681A8938541B713050900E1
:1041C0002320F700EF005061B75D11009305100048
:1041D00013850DADEF40153013860DAD938541C4A9
:1041E00013050900EF00505F138701A99307100022
:1041F0002322F700B7670B0093870782138601A974
:10420000938541B0130509002320F700EF00D05C2F
:10421000138781A9930710002322F700B7670B00CB
:104220009387C784138681A9938501B0130509007C
:104230002320F700EF00505A930581001305090071
:10424000232481012326610123285101232A71019E
:10425000232C4101232E3101EFD01513832DC900EA
:104260001385C1BEEF10004013152500B38DAD00BE
:10427000032DC9001385C1BF23A08D01EF10803E1F
:1042800013152500330DAD00032CC900138581BF24
:1042900023206D01EF10003D13152500330CAC00F9
:1042A000032BC900138501D023205C01EF10803B54
:1042B00013152500330BAB00832AC9001385C1C435
:1042C00023209B00EF10003A13152500B38AAA00A3
:1042D0008324C9001385C1C523A07A01EF1080385B
:1042E000131525003385A4008324C900232045012C
:1042F000138581C5EF100037131525003385A40001
:104300008324C90023203501138581B7EF10803540
:1043100013152500B384A40023A084008320C105C5
:104320000324810583244105032901058329C10450
:10433000032A8104832A4104032B0104832BC10334
:10434000032C8103832C4103032D0103832DC10220
:104350001301010667800000138905009307F0FF31
:104360006304F90CEF30086A93040500130584B563
:1043700013890500EF00402B138504006FF01FFE2A
:1043800093040500130504B413890500EF00C02948
:10439000138504006FF09FFC93040500130544B3DC
:1043A00013890500EF004028138504006FF01FFB00
:1043B000130405001385047E13890500EF00C02651
:1043C000130504006FF09FF993040500130504AE74
:1043D00013890500EF004025138504006FF01FF8D6
:1043E000130405001385C97E13890500EF00C0235F
:1043F000130504006FF09FF6930405001305C4AE87
:1044000013890500EF004022138504006FF01FF5AB
:10441000930405001305C4B413890500EF00C02000
:10442000138504006FF09FF3EF300744130101FF81
:104430002324810037541100130504B29305200092
:1044400023261100EFF04FC8130404B223A881AE55
:1044500023AE81AE8320C10003248100130101013A
:1044600067800000130101FF2324810037541100ED
:10447000130504B29305200023261100EFF0CFC4EA
:10448000130404B223A881AE23AE81AE8320C10001
:1044900003248100130101016780000083A701AF9D
:1044A00063840700678000006FF0DFFB130101FFEA
:1044B000232481002322910023261100232021019F
:1044C0002320050083A701AF1304050063840706BA
:1044D00083A7C1AF2320F40003A701AF638AE702DB
:1044E000EFF0CFB883A7C1AF8320C1008324410080
:1044F00003A70700032901001307170023A0E70003
:104500002320F400032481001301010167800000CF
:1045100003A707008320C1000324810013071700AD
:1045200023A0E700832441000329010013010101B6
:1045300067800000EFF01FF36FF09FF9130101FF98
:104540002324810083A501AF232611006380050287
:10455000138501ACEF00400F138501AC8320C1002F
:10456000032481001301010167800000EFF09FEF39
:1045700083A501AF6FF0DFFD83A701AF130101FD3C
:1045800023248102232291022326110223202103C6
:10459000130405009384050063840708EFF00FAD52
:1045A00083A7040003A9C1AF03A7070093850400F4
:1045B000130581001307170023A0E70023AEF1AE17
:1045C000EF000009B7550B009385C51A130581004C
:1045D000EFF04479631E0502032581009307010172
:1045E0006304F500EF20473E13050400930509001E
:1045F000EF008005130504008320C102032481021B
:104600008324410203290102130101036780000092
:104610008325810013050000EF60984C6FF0DFFBED
:10462000EFF05FE46FF09FF7678000006F20C739FD
:1046300083A7050003A707002320F5001307170031
:1046400023A0E700678000002320B50067800000FA
:10465000130101FC232C8102232631032320610353
:10466000232E1102232A910223282103232441030C
:1046700023225103232E7101232C8101232A91012E
:104680002328A1012326B1012304050083A70500E7
:10469000930985002320350183A707012322050004
:1046A0001304050003AB0700630A0B2603A74700AA
:1046B00063080702938A05009384470013898701E2
:1046C00013050B0003AA040093050A00EF8058228B
:1046D000631805069384440013050A00E39424FF3D
:1046E00013050B00EF9098531307050093060B007A
:1046F000130600009305000013050400EFD0545585
:10470000130504008320C103032481038324410390
:10471000032901038329C102032A8102832A41025A
:10472000032B0102832BC101032C8101832C410146
:10473000032D0101832DC1001301010467800000D6
:104740009305000813050400EFD0C44703AB81892B
:1047500083240B0013850400EF90584C032744007A
:10476000B707008093C7F7FFB387E740130605003C
:1047700063ECA7209385040013050400EFE00471A7
:1047800003294400832704001307F0009304190051
:104790006384F90003278400636E97181307D0031E
:1047A000B38727012380E700832704002322940096
:1047B000B38797002380070083A70A0083A7070118
:1047C00083A4070013850400EF9058450327440095
:1047D000B707008093C7F7FFB387E74013060500CC
:1047E00063EAA71A9385040013050400EFE0046A46
:1047F000370A008093044B00130C8B01930BB0031A
:10480000134AFAFF930CD003032D440083250400C0
:104810009307F00013091D006384B9008327840007
:1048200063EE270BB385A501238075018327040060
:1048300023222401338D6441338927012300090099
:1048400003A9040013050900EF90583D8327440095
:10485000B307FA4063E4A7121306050093050900A5
:1048600013050400EFE08462832D440083270400D5
:104870001307F00013891D006384F90003278400E7
:10488000636E2707B38DB70123809D018327040042
:1048900023222401338927012300090083A70A006A
:1048A00083A70701338DA70103290D001305090014
:1048B000EF90D8368327440013060500B307FA406B
:1048C00063EAA7089305090013050400EFE0045C00
:1048D00093844400E31A9CF26FF09FE213071000E8
:1048E000930600001306000093050D001305040055
:1048F000EFC0945D832504006FF0DFF21307100012
:10490000930600001306000093850D0013050400B4
:10491000EFC0945B832704006FF0DFF61307A0025B
:10492000930610001306000093050000EFD0540317
:104930006FF01FDD13071000930600001306000040
:104940009305090013050400EFC0145883270400E1
:104950006FF0DFE437550B001305051FEF104159C9
:1049600083270400130405006386F90013850700FC
:10497000EF20870513050400EF30C80837550B00FA
:104980001305051FEF10C15637550B001305051F02
:10499000EF10015637550B001305051FEF10415559
:1049A0008327050003A70500130101FB232611043B
:1049B000232481042322910423202105232E310363
:1049C000638CE70A03A907018327090063800708AE
:1049D0008329070103A70900630A0706138405005A
:1049E000930405009305070013850700EF804870C6
:1049F000631E050483274900638C07069385040022
:104A000013050100EFF0DFC49305040013058101D5
:104A1000EFF01FC4032641008327C10183248101D5
:104A200013040000630CF606930701026386F4008A
:104A300013850400EF1057790325010093078100C7
:104A40006308F500EF1057786F0080001304000032
:104A5000130504008320C10403248104832441043A
:104A6000032901048329C1031301010567800000A4
:104A700083A74900E39407F813041000130504000A
:104A80008320C104032481048324410403290104F5
:104A90008329C1031301010567800000130410007E
:104AA000E30406F80325010093850400EF70481C19
:104AB000133415006FF05FF783270100130781009F
:104AC00013040500938405006386E700138507003F
:104AD000EF10976F13050400938504009307F0FF10
:104AE0006386F500EF2018726FF05FFFEF20D75755
:104AF000630805029377F503639607029307600046
:104B000063ECA704B7570B009387071B1315250009
:104B10003305F50083270500678007001305400073
:104B200067800000937705FCE39A07FC678000002C
:104B300013050002678000001305800067800000F5
:104B40001305200067800000130500016780000046
:104B5000130510006780000037550B00130101FF9B
:104B60001305852023261100EF10814D1306000048
:104B700093854188138581AF6F104001130101FFB8
:104B800023248100138481AF032504002326110010
:104B9000630A05008320C100032481001301010181
:104BA00067800000138581AF13060000938541885C
:104BB000EF00D07D032504008320C1000324810081
:104BC00013010101678000001385418867800000A0
:104BD00083264500130101FF2322910023261100A3
:104BE0002324810023202101930405006386060409
:104BF00003278500630E0702130400001309100049
:104C000093172400B387F60003A50700630C050083
:104C1000832745001387F7FF2322E500638C270BCA
:104C200003A7840013041400E36CE4FC638606000D
:104C300013850600EF30875583A6C40063860604FB
:104C400003A78400630E0702130400001309100079
:104C500093172400B387F60003A50700630C050033
:104C6000832745001387F7FF2322E500638E27077C
:104C700003A7840013041400E36CE4FC63860600BD
:104C800013850600EF30875083A70401130400004A
:104C90001309800163840706338787000325070013
:104CA00063060500EF30874E83A704011304440018
:104CB000E31424FF63840704032481008320C100DC
:104CC000832441000329010013850700130101011A
:104CD0006F30C74B8327050083A74700E780070095
:104CE00083A644006FF0DFF38327050083A7470006
:104CF000E780070083A6C4006FF09FF78320C10000
:104D000003248100832441000329010013010101D0
:104D100067800000EF00174FEF00D75983A6C4004B
:104D20006FF01FF5EF00174EEF00D75883A6440031
:104D30006FF01FEF9307F0FF6386F500EF20984CAC
:104D40006FF05FFFEF20573283A70500130101FECC
:104D5000232A910003A7070083240500232C810048
:104D6000232E11001307170023A0E70003A7040058
:104D700093061000130405001306F7FF23A0C400D8
:104D80006300D7022320F400130504008320C1012F
:104D90000324810183244101130101026780000083
:104DA000138504002326B100EFF09FE21385040071
:104DB000EF1097418325C100130504008320C10132
:104DC00083A70500832441012320F40003248101EB
:104DD0001301010267800000130101FF23248100F9
:104DE0000324050023261100130710008327040065
:104DF0009386F7FF2320D400638AE7008320C10055
:104E000003248100130101016780000013050400E1
:104E1000EFF01FDC13050400032481008320C10090
:104E2000130101016F10573A83A78500130101FE9A
:104E3000232A910023282101232E1100232C8100F5
:104E40002326310123244101232251012320C500BF
:104E5000232205002324F50023260500232805002E
:104E600037070020930405001389050013952700D8
:104E700063E4E7001305F0FFEF10C71583A7840074
:104E800023A2A400138707006384070403264900B4
:104E900093060000032706002320E500630A0700AD
:104EA00083274700938717002322F70083A78400F6
:104EB000938616001306460013054500E3ECF6FC46
:104EC000B70600201307F0FF63F4D70013972700FD
:104ED00013050700EF10071083A7840023A6A40082
:104EE000638C07020326C90093060000032706000F
:104EF0002320E500630A07008327470093871700F4
:104F00002322F70083A78400938616001306460029
:104F100013054500E3ECF6FC13058001EF10870B49
:104F20009307050023A8A4001307850123A0070009
:104F300093874700E31CF7FE13040000130A800167
:104F400083270901B387870003A5070063040504CD
:104F5000EF90C84C83A90401930A150013850A0039
:104F6000B3898900EF10070783A70401032709010C
:104F700023A0A900B3878700330787008325070094
:104F800003A507001304440013860A00EF6058517C
:104F9000E31844FB8320C1010324810183244101E0
:104FA000032901018329C100032A8100832A4100CA
:104FB0001301010267800000EF00D724138504006D
:104FC000EFF01FC1EF10174013040500EF00972EFC
:104FD00013050400EF2018236306062E130101FDBC
:104FE0002328610103AB050023261102232481023B
:104FF0002322910223202103232E3101232C41015E
:10500000232A510123267101631C0B00938741AFB2
:1050100003AB0700130B1B0023A0670123A065014E
:10502000832785009304FBFF130405009387F7FF94
:1050300013090600032A450063EC971883274900EB
:1050400093992400B3093A0103A509009387170037
:105050002322F9006306050EB7560B0003A6860748
:105060006306060C938686076F000003631C080026
:10507000938741AF03A707001307170023A0E7009A
:1050800023A0E5001307F7FF638CE42493868600D2
:1050900003A60600630C060883270600639C07002E
:1050A000138741AF83270700938717002320F7005A
:1050B0002320F60083A546009387F7FF03A8050089
:1050C00013070800E394F4FA631C0800938741AFC8
:1050D00003A807001308180023A0070123A0050157
:1050E0001308F8FF13182800330A0A0183270A005F
:1050F000638E070213050900EF700009832745003E
:105100009304050003250A009387170023A2F400E7
:1051100083274500130710009386F7FF2322D5004D
:10512000638AE72223209A0003A50900832745000C
:10513000130710009386F7FF2322D500638AE71830
:105140000327840023A02901630E070493040000B1
:105150008326C400930910006F00400103278400D8
:1051600023A007009384140063FEE4021399240033
:10517000B387260103A50700E30605FE03274500C4
:105180001306F7FF2322C500E31A37FD8327050026
:1051900083A74700E78007008326C400B387260162
:1051A0006FF0DFFB8320C1020324810283244102CC
:1051B000032901028329C101032A8101832A4101B4
:1051C000032B0101832BC100130101036780000041
:1051D00093093B00B7070020930BF0FF63E6F90E3D
:1051E00013850B00EF00175F83278400930A0500E7
:1051F0006384070203274400939527009306050064
:10520000B385E50003260700938646001307470091
:1052100023AEC6FEE318B7FE63F2370313172B0065
:10522000939727001307C700B387FA003387EA0074
:1052300023A0070093874700E31CF7FE13850B00AC
:10524000832BC400EF00175983278400638407026F
:105250000327C4009395270093060500B385E50056
:1052600003260700938646001307470023AEC6FEB9
:10527000E398E5FE63F2370313172B00939727009B
:105280001307C700B307F5003307E50023A00700A5
:1052900093874700E39CE7FE232434012322540133
:1052A0002326A40063060A0013050A00EF20176EE8
:1052B00063860B0013850B00EF20576D032A440013
:1052C0006FF0DFD767800000939B29006FF05FF1DC
:1052D0008327050083A74700E78007006FF05FE69C
:1052E00083270600639C0700138741AF83270700CD
:1052F000938717002320F7002320F6009387F7FFFA
:1053000093972700330AFA0083270A00E38007E215
:105310009305060013050900EFB0801483274500AC
:105320009304050003250A009387170023A2F400C5
:1053300083274500130710009386F7FF2322D5002B
:10534000E392E7DE8327050083A74700E780070095
:105350006FF05FDD8327050083A74700E780070024
:105360006FF05FDCEF00076AEF00C7746FF0DFE2F9
:10537000EF004769EF0007746FF09FDCEF0087686C
:1053800013850A00EF209760EF10D703EF008767BF
:10539000EF0047726FF01FD9EF00C766EF0087710B
:1053A0006FF05FD89307F0FF6388F502EF20886500
:1053B0009307F0FF638CF502EF20C8641304050027
:1053C000EF00476F13050400EF20C8639307F0FF59
:1053D0006386F500EF200863EF200749EF20C748F8
:1053E0009307F0FF6386F500EF20C861EF20C74701
:1053F000EF2087478327060093060600639C07007B
:10540000138741AF83270700938717002320F700F6
:105410002320F60003A785009387F7FF1307F7FF04
:105420006360F70203A7450093972700B307F700CF
:1054300003A6070063060600938506006FF0DFB938
:1054400037550B00130101FF1305C5232326110057
:10545000EF00113F130101FF232481001304060014
:105460000326060023261100232291002320210178
:105470006302060213090500938405009385040066
:105480001305090013044400EFF0DFF603260400BF
:10549000E31606FE8320C10003248100832441001B
:1054A000032901001301010167800000130101FEBF
:1054B00023263101232C8100232A91002328210156
:1054C000232E1100938781AE83C707000F00F00FD2
:1054D0001309050093F7F70F9384050013040600E2
:1054E00063820710B7560B0003A5860763080510F3
:1054F000938686076F008002631A08000327030063
:10550000130717002320E3002320E6001307F7FF0B
:10551000630AE41003A506006302050E8327050055
:10552000138741AF138341AF639A070083270700B6
:10553000938717002320F7002320F50003A64600D9
:105540009387F7FF93868600032806001307080059
:10555000E314F4FA630C080E1308F8FF8327C9005C
:105560001314240033848700032704006308070210
:10557000638C040483A70400032481018320C101F8
:10558000032901018329C1001385040003A34700F7
:1055900083244101130101026700030003A74400B3
:1055A0009306F0FF1306170023A2C40023209400E3
:1055B000630CD800130727001318280023A2E40067
:1055C00033880701232098008320C101032481012F
:1055D00083244101032901018329C1001301010230
:1055E00067800000138581AEEF00D717E30C05EE4E
:1055F000138581AEEF00171D6FF0DFEE8327C90022
:10560000131424003384870083270400E39207F6F1
:1056100083A744009387170023A2F400232094005B
:105620006FF09FFA83270500639C0700138741AF43
:1056300083270700938717002320F7002320F50016
:10564000130804001384F7FF6FF05FF1938741AFF5
:1056500003A807001308180023A007012320060150
:105660006FF09FEF83270500639C0700138741AF0E
:1056700083270700938717002320F7002320F500D6
:105680001385F7FF67800000130101FD23229102BB
:10569000232E3101930405009389050013050000B2
:1056A000930500002326110223202103232C41010E
:1056B000232A510123248102930A0600EF50584205
:1056C000130A0500EF80985513091500130509000A
:1056D000EF0057101306090093050A001304050094
:1056E000EF60085CB7550B009385C52E13050000CD
:1056F000EF50183F9305C10013850400EF905873D5
:105700008327C10023A0A900130905006380970423
:1057100083C70700639C0702B7540B0083A5442E80
:10572000EFF0171B6358A00693050000130509004E
:10573000EFF0171A6352A00883A7442E23A0F900A4
:105740009307400023A0FA006F0040019307000078
:1057500023A0F9009307400023A0FA00930504005A
:1057600013050000EF50D83713050400EF2017226F
:105770008320C10203248102832441020329010200
:105780008329C101032A8101832A410113010103F5
:1057900067800000B7570B0083A5872E130509000B
:1057A000EFF0D71FE35C05FA93050000130509002D
:1057B000EFF01712E342A0F8B7570B0083A7872E2C
:1057C00023A0F9006FF0DFF79307F0FF6384F50083
:1057D000EF204823EF204709130101FD2322910206
:1057E000232E310193040500938905001305000061
:1057F000930500002326110223202103232C4101BD
:105800002328610123248102130B0600232A51015E
:10581000EF50182D130A0500EF80584013091500AA
:1058200013050900EF00077B1306090093050A0022
:1058300013040500EF60C846B7550B009385C52ECD
:1058400013050000EF50D8299305C100138504000B
:10585000EF90185D8327C10023A0A90023A2B900FF
:10586000130A0500938A0500638C970483C7070019
:1058700063980704B7540B009384842A03A604009A
:1058800083A64400EFE057406352A00813060000CF
:105890009306000013050A0093850A00EFE0D73E47
:1058A0006352A00A03A7040083A7440023A0E900D1
:1058B00023A2F900930740002320FB006F00400162
:1058C00023A0090023A20900930740002320FB0026
:1058D0009305040013050000EF5098201305040001
:1058E000EF20D70A8320C1020324810283244102CE
:1058F000032901028329C101032A8101832A41016D
:10590000032B01011301010367800000B7570B004F
:105910009387072B03A6070083A6470013050A00F9
:1059200093850A00EFE01746E35405FA13060000DA
:105930009306000013050A0093850A00EFE0D734B0
:10594000E342A0F6B7570B009387072B03A7070086
:1059500083A7470023A0E90023A2F9006FF09FF579
:105960009307F0FF6384F500EF20C809EF10D76FAD
:10597000130101FB23248104232E3103138405002A
:105980009309050093050000130500002326110468
:1059900023202105232C4103232A51032322910490
:1059A000930A06002328610323267103EF5058133E
:1059B000130A0500EF809826130915001305090046
:1059C000EF0047611306090093050A0093040500E0
:1059D000EF60082DB7550B009385C52E1305000009
:1059E000EF501810B7550B00130604009385052ED1
:1059F00013850900EF70884A1305150093071000FE
:105A000063F8A70A37590B001309092C832B0400EC
:105A1000032B4400032A84008329C40003260900C1
:105A200083264900032789008327C90093050100C5
:105A30001305010123287101232A6101232C41014F
:105A4000232E31012320C1002322D1002324E10091
:105A50002326F100EFE0D7426356A00A9305010028
:105A60001305010123287101232A6101232C41011F
:105A7000232E3101232001002322010023240100D1
:105A800023260100EFE0D73F6354A00C0327C90091
:105A90009307F0FF2320F4002322F4002324F400D2
:105AA0002326E4009307400023A0FA006F00C00102
:105AB00023200400232204002324040023260400BE
:105AC0009307400023A0FA0093850400130500000B
:105AD000EF501801032481048320C1040329010429
